{
  "contractName": "Poll",
  "abi": [
    {
      "inputs": [
        {
          "internalType": "string",
          "name": "_question",
          "type": "string"
        }
      ],
      "stateMutability": "nonpayable",
      "type": "constructor"
    },
    {
      "anonymous": false,
      "inputs": [],
      "name": "PollClosed",
      "type": "event"
    },
    {
      "inputs": [],
      "name": "endTime",
      "outputs": [
        {
          "internalType": "uint256",
          "name": "",
          "type": "uint256"
        }
      ],
      "stateMutability": "view",
      "type": "function",
      "constant": true
    },
    {
      "inputs": [
        {
          "internalType": "address",
          "name": "",
          "type": "address"
        }
      ],
      "name": "hasVoted",
      "outputs": [
        {
          "internalType": "bool",
          "name": "",
          "type": "bool"
        }
      ],
      "stateMutability": "view",
      "type": "function",
      "constant": true
    },
    {
      "inputs": [],
      "name": "noVotes",
      "outputs": [
        {
          "internalType": "uint256",
          "name": "",
          "type": "uint256"
        }
      ],
      "stateMutability": "view",
      "type": "function",
      "constant": true
    },
    {
      "inputs": [],
      "name": "pollOpen",
      "outputs": [
        {
          "internalType": "bool",
          "name": "",
          "type": "bool"
        }
      ],
      "stateMutability": "view",
      "type": "function",
      "constant": true
    },
    {
      "inputs": [],
      "name": "question",
      "outputs": [
        {
          "internalType": "string",
          "name": "",
          "type": "string"
        }
      ],
      "stateMutability": "view",
      "type": "function",
      "constant": true
    },
    {
      "inputs": [],
      "name": "yesVotes",
      "outputs": [
        {
          "internalType": "uint256",
          "name": "",
          "type": "uint256"
        }
      ],
      "stateMutability": "view",
      "type": "function",
      "constant": true
    },
    {
      "inputs": [],
      "name": "voteYes",
      "outputs": [],
      "stateMutability": "nonpayable",
      "type": "function"
    },
    {
      "inputs": [],
      "name": "voteNo",
      "outputs": [],
      "stateMutability": "nonpayable",
      "type": "function"
    },
    {
      "inputs": [],
      "name": "closePoll",
      "outputs": [],
      "stateMutability": "nonpayable",
      "type": "function"
    }
  ],
  "bytecode": "0x608060405234801561001057600080fd5b5060405161077e38038061077e83398101604081905261002f916100fd565b8051610042906000906020840190610064565b506001805460ff19168117905561005b4261012c6101bf565b60025550610234565b828054610070906101e3565b90600052602060002090601f01602090048101928261009257600085556100d8565b82601f106100ab57805160ff19168380011785556100d8565b828001600101855582156100d8579182015b828111156100d85782518255916020019190600101906100bd565b506100e49291506100e8565b5090565b5b808211156100e457600081556001016100e9565b6000602080838503121561010f578182fd5b82516001600160401b0380821115610125578384fd5b818501915085601f830112610138578384fd5b81518181111561014a5761014a61021e565b604051601f8201601f191681018501838111828210171561016d5761016d61021e565b6040528181528382018501881015610183578586fd5b8592505b818310156101a45783830185015181840186015291840191610187565b818311156101b457858583830101525b979650505050505050565b600082198211156101de57634e487b7160e01b81526011600452602481fd5b500190565b6002810460018216806101f757607f821691505b6020821081141561021857634e487b7160e01b600052602260045260246000fd5b50919050565b634e487b7160e01b600052604160045260246000fd5b61053b806102436000396000f3fe608060405234801561001057600080fd5b50600436106100935760003560e01c806341c12a701161006657806341c12a70146100f357806390cf581c146100fd578063b5b47f4214610105578063ed8c2aed1461010d578063fb286c651461011557610093565b806309eef43e146100985780632ed2a4d7146100c15780633197cbb6146100c95780633fad9ae0146100de575b600080fd5b6100ab6100a6366004610358565b61011d565b6040516100b89190610386565b60405180910390f35b6100ab610132565b6100d161013b565b6040516100b8919061049a565b6100e6610141565b6040516100b89190610391565b6100fb6101cf565b005b6100fb610259565b6100d16102d3565b6100fb6102d9565b6100d1610352565b60056020526000908152604090205460ff1681565b60015460ff1681565b60025481565b6000805461014e906104a3565b80601f016020809104026020016040519081016040528092919081815260200182805461017a906104a3565b80156101c75780601f1061019c576101008083540402835291602001916101c7565b820191906000526020600020905b8154815290600101906020018083116101aa57829003601f168201915b505050505081565b60015460ff166101fa5760405162461bcd60e51b81526004016101f1906103e4565b60405180910390fd5b3360009081526005602052604090205460ff161561022a5760405162461bcd60e51b81526004016101f19061040c565b336000908152600560205260408120805460ff191660011790556004805491610252836104de565b9190505550565b60015460ff1661027b5760405162461bcd60e51b81526004016101f1906103e4565b3360009081526005602052604090205460ff16156102ab5760405162461bcd60e51b81526004016101f19061040c565b336000908152600560205260408120805460ff191660011790556003805491610252836104de565b60045481565b60015460ff166102fb5760405162461bcd60e51b81526004016101f19061046a565b60025442101561031d5760405162461bcd60e51b81526004016101f190610433565b6001805460ff191690556040517f5e24da2538f801728822124bb8a94fd11c332883ca34345e44ddf7f79587cef990600090a1565b60035481565b600060208284031215610369578081fd5b81356001600160a01b038116811461037f578182fd5b9392505050565b901515815260200190565b6000602080835283518082850152825b818110156103bd578581018301518582016040015282016103a1565b818111156103ce5783604083870101525b50601f01601f1916929092016040019392505050565b6020808252600e908201526d141bdb1b081a5cc818db1bdcd95960921b604082015260600190565b6020808252600d908201526c105b1c9958591e481d9bdd1959609a1b604082015260600190565b6020808252601d908201527f566f74696e6720706572696f64206973206e6f74206f76657220796574000000604082015260600190565b602080825260169082015275141bdb1b081a5cc8185b1c9958591e4818db1bdcd95960521b604082015260600190565b90815260200190565b6002810460018216806104b757607f821691505b602082108114156104d857634e487b7160e01b600052602260045260246000fd5b50919050565b60006000198214156104fe57634e487b7160e01b81526011600452602481fd5b506001019056fea2646970667358221220780e718fa6f10df8c4fab57ee5020d34f8ffbd633aa7204d1accf645efe682e764736f6c63430008000033",
  "immutableReferences": {},
  "source": "pragma solidity ^0.8.0;\r\n\r\ncontract Poll {\r\n    // Poll question\r\n    string public question;\r\n\r\n    // Poll status\r\n    bool public pollOpen;\r\n\r\n    // Poll end time\r\n    uint256 public endTime;\r\n\r\n    // Vote counts\r\n    uint256 public yesVotes;\r\n    uint256 public noVotes;\r\n\r\n    // Voter info\r\n    mapping(address => bool) public hasVoted;\r\n\r\n    // Event to notify when poll is closed\r\n    event PollClosed();\r\n\r\n    // Constructor function\r\n    constructor(string memory _question) {\r\n        question = _question;\r\n        pollOpen = true;\r\n        endTime = block.timestamp + 5 minutes;\r\n    }\r\n\r\n    // Function to vote \"yes\"\r\n    function voteYes() public {\r\n        require(pollOpen, \"Poll is closed\");\r\n        require(!hasVoted[msg.sender], \"Already voted\");\r\n        hasVoted[msg.sender] = true;\r\n        yesVotes++;\r\n    }\r\n\r\n    // Function to vote \"no\"\r\n    function voteNo() public {\r\n        require(pollOpen, \"Poll is closed\");\r\n        require(!hasVoted[msg.sender], \"Already voted\");\r\n        hasVoted[msg.sender] = true;\r\n        noVotes++;\r\n    }\r\n\r\n    // Function to close the poll\r\n    function closePoll() public {\r\n        require(pollOpen, \"Poll is already closed\");\r\n        require(block.timestamp >= endTime, \"Voting period is not over yet\");\r\n        pollOpen = false;\r\n        emit PollClosed();\r\n    }\r\n}",
  "sourcePath": "C:\\Users\\om prabhu\\Desktop\\voting\\contracts\\Poll.sol",
  "compiler": {
    "name": "solc",
    "version": "0.8.0+commit.c7dfd78e.Emscripten.clang"
  },
  "schemaVersion": "3.4.13",
  "updatedAt": "2023-03-27T19:00:56.410Z",
  "networkType": "ethereum",
  "devdoc": {
    "kind": "dev",
    "methods": {},
    "version": 1
  },
  "userdoc": {
    "kind": "user",
    "methods": {},
    "version": 1
  }
}